{
  "_format": "hh-sol-artifact-1",
  "contractName": "KYCStorage",
  "sourceName": "contracts/FileStorage.sol",
  "abi": [
    {
      "anonymous": false,
      "inputs": [
        {
          "indexed": true,
          "internalType": "address",
          "name": "user",
          "type": "address"
        },
        {
          "indexed": false,
          "internalType": "string",
          "name": "name",
          "type": "string"
        },
        {
          "indexed": false,
          "internalType": "string",
          "name": "email",
          "type": "string"
        },
        {
          "indexed": false,
          "internalType": "string",
          "name": "ipfsHash",
          "type": "string"
        },
        {
          "indexed": false,
          "internalType": "uint256",
          "name": "timestamp",
          "type": "uint256"
        }
      ],
      "name": "KYCUploaded",
      "type": "event"
    },
    {
      "inputs": [],
      "name": "getRecords",
      "outputs": [
        {
          "components": [
            {
              "internalType": "address",
              "name": "user",
              "type": "address"
            },
            {
              "internalType": "string",
              "name": "name",
              "type": "string"
            },
            {
              "internalType": "string",
              "name": "email",
              "type": "string"
            },
            {
              "internalType": "string",
              "name": "ipfsHash",
              "type": "string"
            },
            {
              "internalType": "uint256",
              "name": "timestamp",
              "type": "uint256"
            }
          ],
          "internalType": "struct KYCStorage.KYCRecord[]",
          "name": "",
          "type": "tuple[]"
        }
      ],
      "stateMutability": "view",
      "type": "function"
    },
    {
      "inputs": [
        {
          "internalType": "uint256",
          "name": "",
          "type": "uint256"
        }
      ],
      "name": "records",
      "outputs": [
        {
          "internalType": "address",
          "name": "user",
          "type": "address"
        },
        {
          "internalType": "string",
          "name": "name",
          "type": "string"
        },
        {
          "internalType": "string",
          "name": "email",
          "type": "string"
        },
        {
          "internalType": "string",
          "name": "ipfsHash",
          "type": "string"
        },
        {
          "internalType": "uint256",
          "name": "timestamp",
          "type": "uint256"
        }
      ],
      "stateMutability": "view",
      "type": "function"
    },
    {
      "inputs": [
        {
          "internalType": "string",
          "name": "_name",
          "type": "string"
        },
        {
          "internalType": "string",
          "name": "_email",
          "type": "string"
        },
        {
          "internalType": "string",
          "name": "_ipfsHash",
          "type": "string"
        }
      ],
      "name": "uploadKYC",
      "outputs": [],
      "stateMutability": "nonpayable",
      "type": "function"
    }
  ],
  "bytecode": "0x6080604052348015600f57600080fd5b50610f568061001f6000396000f3fe608060405234801561001057600080fd5b50600436106100415760003560e01c806334461067146100465780638eff3c291461007a578063dc95185614610098575b600080fd5b610060600480360381019061005b91906106c7565b6100b4565b6040516100719594939291906107d4565b60405180910390f35b6100826102b2565b60405161008f91906109ea565b60405180910390f35b6100b260048036038101906100ad9190610b41565b610527565b005b600081815481106100c457600080fd5b90600052602060002090600502016000915090508060000160009054906101000a900473ffffffffffffffffffffffffffffffffffffffff169080600101805461010d90610c17565b80601f016020809104026020016040519081016040528092919081815260200182805461013990610c17565b80156101865780601f1061015b57610100808354040283529160200191610186565b820191906000526020600020905b81548152906001019060200180831161016957829003601f168201915b50505050509080600201805461019b90610c17565b80601f01602080910402602001604051908101604052809291908181526020018280546101c790610c17565b80156102145780601f106101e957610100808354040283529160200191610214565b820191906000526020600020905b8154815290600101906020018083116101f757829003601f168201915b50505050509080600301805461022990610c17565b80601f016020809104026020016040519081016040528092919081815260200182805461025590610c17565b80156102a25780601f10610277576101008083540402835291602001916102a2565b820191906000526020600020905b81548152906001019060200180831161028557829003601f168201915b5050505050908060040154905085565b60606000805480602002602001604051908101604052809291908181526020016000905b8282101561051e57838290600052602060002090600502016040518060a00160405290816000820160009054906101000a900473ffffffffffffffffffffffffffffffffffffffff1673ffffffffffffffffffffffffffffffffffffffff1673ffffffffffffffffffffffffffffffffffffffff16815260200160018201805461035f90610c17565b80601f016020809104026020016040519081016040528092919081815260200182805461038b90610c17565b80156103d85780601f106103ad576101008083540402835291602001916103d8565b820191906000526020600020905b8154815290600101906020018083116103bb57829003601f168201915b505050505081526020016002820180546103f190610c17565b80601f016020809104026020016040519081016040528092919081815260200182805461041d90610c17565b801561046a5780601f1061043f5761010080835404028352916020019161046a565b820191906000526020600020905b81548152906001019060200180831161044d57829003601f168201915b5050505050815260200160038201805461048390610c17565b80601f01602080910402602001604051908101604052809291908181526020018280546104af90610c17565b80156104fc5780601f106104d1576101008083540402835291602001916104fc565b820191906000526020600020905b8154815290600101906020018083116104df57829003601f168201915b50505050508152602001600482015481525050815260200190600101906102d6565b50505050905090565b60006040518060a001604052803373ffffffffffffffffffffffffffffffffffffffff16815260200185815260200184815260200183815260200142815250908060018154018082558091505060019003906000526020600020906005020160009091909190915060008201518160000160006101000a81548173ffffffffffffffffffffffffffffffffffffffff021916908373ffffffffffffffffffffffffffffffffffffffff16021790555060208201518160010190816105eb9190610df4565b5060408201518160020190816106019190610df4565b5060608201518160030190816106179190610df4565b506080820151816004015550503373ffffffffffffffffffffffffffffffffffffffff167f77f74687d181f492edf206c3e467ac518bdbcdb7c2b0c4dd4139f5e68fb5db9d848484426040516106709493929190610ec6565b60405180910390a2505050565b6000604051905090565b600080fd5b600080fd5b6000819050919050565b6106a481610691565b81146106af57600080fd5b50565b6000813590506106c18161069b565b92915050565b6000602082840312156106dd576106dc610687565b5b60006106eb848285016106b2565b91505092915050565b600073ffffffffffffffffffffffffffffffffffffffff82169050919050565b600061071f826106f4565b9050919050565b61072f81610714565b82525050565b600081519050919050565b600082825260208201905092915050565b60005b8381101561076f578082015181840152602081019050610754565b60008484015250505050565b6000601f19601f8301169050919050565b600061079782610735565b6107a18185610740565b93506107b1818560208601610751565b6107ba8161077b565b840191505092915050565b6107ce81610691565b82525050565b600060a0820190506107e96000830188610726565b81810360208301526107fb818761078c565b9050818103604083015261080f818661078c565b90508181036060830152610823818561078c565b905061083260808301846107c5565b9695505050505050565b600081519050919050565b600082825260208201905092915050565b6000819050602082019050919050565b61087181610714565b82525050565b600082825260208201905092915050565b600061089382610735565b61089d8185610877565b93506108ad818560208601610751565b6108b68161077b565b840191505092915050565b6108ca81610691565b82525050565b600060a0830160008301516108e86000860182610868565b50602083015184820360208601526109008282610888565b9150506040830151848203604086015261091a8282610888565b915050606083015184820360608601526109348282610888565b915050608083015161094960808601826108c1565b508091505092915050565b600061096083836108d0565b905092915050565b6000602082019050919050565b60006109808261083c565b61098a8185610847565b93508360208202850161099c85610858565b8060005b858110156109d857848403895281516109b98582610954565b94506109c483610968565b925060208a019950506001810190506109a0565b50829750879550505050505092915050565b60006020820190508181036000830152610a048184610975565b905092915050565b600080fd5b600080fd5b7f4e487b7100000000000000000000000000000000000000000000000000000000600052604160045260246000fd5b610a4e8261077b565b810181811067ffffffffffffffff82111715610a6d57610a6c610a16565b5b80604052505050565b6000610a8061067d565b9050610a8c8282610a45565b919050565b600067ffffffffffffffff821115610aac57610aab610a16565b5b610ab58261077b565b9050602081019050919050565b82818337600083830152505050565b6000610ae4610adf84610a91565b610a76565b905082815260208101848484011115610b0057610aff610a11565b5b610b0b848285610ac2565b509392505050565b600082601f830112610b2857610b27610a0c565b5b8135610b38848260208601610ad1565b91505092915050565b600080600060608486031215610b5a57610b59610687565b5b600084013567ffffffffffffffff811115610b7857610b7761068c565b5b610b8486828701610b13565b935050602084013567ffffffffffffffff811115610ba557610ba461068c565b5b610bb186828701610b13565b925050604084013567ffffffffffffffff811115610bd257610bd161068c565b5b610bde86828701610b13565b9150509250925092565b7f4e487b7100000000000000000000000000000000000000000000000000000000600052602260045260246000fd5b60006002820490506001821680610c2f57607f821691505b602082108103610c4257610c41610be8565b5b50919050565b60008190508160005260206000209050919050565b60006020601f8301049050919050565b600082821b905092915050565b600060088302610caa7fffffffffffffffffffffffffffffffffffffffffffffffffffffffffffffffff82610c6d565b610cb48683610c6d565b95508019841693508086168417925050509392505050565b6000819050919050565b6000610cf1610cec610ce784610691565b610ccc565b610691565b9050919050565b6000819050919050565b610d0b83610cd6565b610d1f610d1782610cf8565b848454610c7a565b825550505050565b600090565b610d34610d27565b610d3f818484610d02565b505050565b5b81811015610d6357610d58600082610d2c565b600181019050610d45565b5050565b601f821115610da857610d7981610c48565b610d8284610c5d565b81016020851015610d91578190505b610da5610d9d85610c5d565b830182610d44565b50505b505050565b600082821c905092915050565b6000610dcb60001984600802610dad565b1980831691505092915050565b6000610de48383610dba565b9150826002028217905092915050565b610dfd82610735565b67ffffffffffffffff811115610e1657610e15610a16565b5b610e208254610c17565b610e2b828285610d67565b600060209050601f831160018114610e5e5760008415610e4c578287015190505b610e568582610dd8565b865550610ebe565b601f198416610e6c86610c48565b60005b82811015610e9457848901518255600182019150602085019450602081019050610e6f565b86831015610eb15784890151610ead601f891682610dba565b8355505b6001600288020188555050505b505050505050565b60006080820190508181036000830152610ee0818761078c565b90508181036020830152610ef4818661078c565b90508181036040830152610f08818561078c565b9050610f1760608301846107c5565b9594505050505056fea2646970667358221220c95d5cf4b1c17a32b28c5282d8f4520860c132607d59351c0ba94896662d82f764736f6c634300081c0033",
  "linkReferences": {},
  "deployedLinkReferences": {}
}